:10000000F5C0000023C1000021C100001FC1000095
:100010001DC100001BC1000019C1000017C1000074
:1000200015C1000013C1000011C100000FC1000084
:100030000DC100000BC1000009C1000007C1000094
:1000400005C1000003C1000001C10000FFC00000A5
:10005000FDC00000FBC00000F9C000000FC400009C
:10006000F5C000007EC4000053C40000EFC00000D3
:10007000EDC00000EBC00000E9C00000E7C00000D8
:10008000E5C00000E3C00000E1C00000DFC00000E8
:10009000DDC00000DBC00000D9C00000D7C00000F8
:1000A000D5C00000D3C00000D1C00000CFC0000008
:1000B000CDC00000CBC00000C9C00000C7C0000018
:1000C000C5C00000C3C00000C1C00000BFC0000028
:1000D000BDC00000BBC00000B9C00000B7C0000038
:1000E000B5C0000000000A0B02090C0D0E08070342
:1000F00004010000000000000000000000000000FB
:1001000000000000000000000000000000000000EF
:1001100012111000000000000000000000000000AC
:100120000000000000000000000000002200250088
:1001300028002B002E0031003400020100000501D0
:1001400008010B0100002100240027002A002D00D7
:100150003000330001010000040107010A01050518
:100160000505070508080808020202020A0A08082D
:10017000040404040101010101010101030303035B
:1001800003030303040707070C0C0C0C0C0C0C0CEA
:100190000202020206060606060606060B0B0B0BFB
:1001A0000B0B0B0B01021020200808102040102020
:1001B000408002010201080402010102040810202B
:1001C0004080804020100804020180040201804029
:1001D0002010080402010804020101020408102092
:1001E00040800102040810204080540711241FBEE3
:1001F000CFEFD1E2DEBFCDBF00E00CBF12E0A0E048
:10020000B2E0EEE8F3E100E00BBF02C007900D9210
:10021000AA34B107D9F723E0AAE4B2E001C01D92E5
:10022000AC30B207E1F710E0C6EFD0E000E006C066
:1002300021970109802FFE010E94BD09C53FD1070A
:1002400080E00807A9F7C3D30C94C509D9CE8091E3
:100250007B00877F80937B0081E480937C0080918A
:100260007A00806480937A0080917A0086FDFCCFCA
:100270008091780090917900089590E0FC01EC5510
:10028000FE4F2491825A9E4FFC018491882399F05D
:1002900090E0880F991FFC01EC5BFE4FA591B49193
:1002A000FC01E65DFE4F859194918FB7F894EC9137
:1002B000E22BEC938FBF0895282F30E0F901EC5129
:1002C000FF4F9491F901EC55FE4F4491225A3E4F55
:1002D000F9012491222309F435C0992311F1915099
:1002E0009231F8F4E92FF0E08827E658FE4F8F4F5F
:1002F0000C94BD09AB01AF018C01A301A7019101D1
:10030000B201B801BC01C201C601CA01D001D401C9
:100310009101D801DE01E201809180008F77809306
:100320008000E22FF0E0EE0FFF1FE65DFE4FA5918B
:10033000B4918FB7F894EC91611148C040954E2369
:100340004C938FBF0895809180008F7DE8CF80917E
:100350008000877FE4CF84B58F7784BDE2CF84B5FA
:100360008F7DFBCF8091B0008F778093B000D9CF85
:100370008091B0008F7DF9CF809190008F7780932E
:100380009000CFCF809190008F7DF9CF8091900029
:10039000877FF5CF8091A0008F778093A000C1CF99
:1003A0008091A0008F7DF9CF8091A000877FF5CF4D
:1003B000809120018F7780932001B3CF809120011D
:1003C0008F7DF9CF80912001877FF5CF4E2BB8CF5D
:1003D0003FB7F89480916B0290916C02A0916D02EE
:1003E000B0916E0226B5A89B05C02F3F19F001966B
:1003F000A11DB11D3FBFBA2FA92F982F8827BC017F
:10040000CD01620F711D811D911D42E0660F771FA6
:10041000881F991F4A95D1F70895AF92BF92CF9246
:10042000DF92EF92FF920F931F93CF93DF936C01B4
:100430007B018B01040F151FEB015E01AE18BF0895
:10044000C017D10759F06991D601ED91FC91019047
:10045000F081E02DC6011995892B79F7C501DF914F
:10046000CF911F910F91FF90EF90DF90CF90BF90B1
:10047000AF900895FC01538D448D252F30E0842FDB
:1004800090E0821B930B541710F0CF9608950197BC
:100490000895FC01918D828D981761F0A28DAE0FA9
:1004A000BF2FB11D5D968C91928D9F5F9F73928F30
:1004B00090E008958FEF9FEF0895FC01918D828D5C
:1004C000981731F0828DE80FF11D858D90E0089529
:1004D0008FEF9FEF0895FC01918D228D892F90E081
:1004E000805C9F4F821B91098F73992708958FE637
:1004F00092E0F1DF21E0892B09F420E0822F0895BA
:10050000FC01A48DA80FB92FB11DA35ABF4F2C9188
:10051000848D90E001968F739927848FA689B7897F
:100520002C93A089B1898C91837080648C93938D76
:10053000848D981306C00288F389E02D80818F7D19
:1005400080830895EF92FF920F931F93CF93DF93D1
:10055000EC0181E0888F9B8D8C8D98131AC0E889FF
:10056000F989808185FF15C09FB7F894EE89FF89CE
:100570006083E889F98980818370806480839FBF6C
:1005800081E090E0DF91CF911F910F91FF90EF906C
:100590000895F62E0B8D10E00F5F1F4F0F7311277C
:1005A000E02E8C8D8E110BC00FB607FCFACFE889B8
:1005B000F989808185FFF5CFCE01A2DFF2CFEB8DE7
:1005C000EC0FFD2FF11DE35AFF4FF0829FB7F89417
:1005D0000B8FEA89FB8980818062D0CFCF93DF9334
:1005E000EC01888D8823B1F0AA89BB89E889F98953
:1005F0008C9185FD03C0808186FD0CC00FB607FC81
:10060000F7CF8C9185FFF2CF808185FFEDCFCE01B2
:1006100077DFEACFDF91CF91089580E090E0892BDA
:1006200021F065DF81110E94000080E090E0892BBD
:1006300049F080E090E0892B29F00E9400008111B0
:100640000E94000080E090E0892B49F080E090E07B
:10065000892B29F00E94000081110E94000080E097
:1006600090E0892B49F080E090E0892B29F00E94EE
:10067000000081110C9400000895FC0101900020FD
:10068000E9F73197AF01481B590BBC018FE692E0A7
:10069000C4CE8F929F92AF92BF920F931F93CF932E
:1006A000DF93CDB7DEB7A1970FB6F894DEBF0FBECC
:1006B000CDBF19A2423008F44AE08E010F5D1F4FF2
:1006C000842E912CB12CA12CA501940134D6E62FB7
:1006D000B901CA01EA30ECF4E05DD801EE938D0176
:1006E000232B242B252B81F790E080E0109711F02D
:1006F000CD01C3DFA1960FB6F894DEBF0FBECDBF0C
:10070000DF91CF911F910F91BF90AF909F908F90ED
:100710000895E95CE2CF4F925F926F927F928F9241
:100720009F92AF92BF92CF92DF92EF92FF926B01B6
:100730007C01AC019B01FBD58823B1F082E192E002
:100740009CDF7C018EE192E098DF8E0D9F1DFF9073
:10075000EF90DF90CF90BF90AF909F908F907F9061
:100760006F905F904F90089546015701E894B7F855
:100770002FEF3FEF4FE75FE7C501B401D8D58111F7
:100780000CC02FEF3FEF4FE75FE7C501B4011ED468
:1007900018161CF486E192E0D3CF2FEF3FEF4FE71E
:1007A0005FE4C701B6015CD518161CF48AE192E03B
:1007B000C7CF2FEF3FEF4FE75FECC701B60106D47D
:1007C00087FDF4CF20E030E0A901C701B601FED3D8
:1007D000B12CA12C87FF09C06DE28FE692E0B2DE5A
:1007E0005C01F7FAF094F7F8F0942AE037ED43EA69
:1007F0005BE3C701B60186D32B013C0153D46B01E7
:100800007C017CD49B01AC01C301B2017AD32B01E2
:100810003C014AE0C701B6013CDF7C01EA0CFB1C4D
:100820006EE28FE692E08EDEE80EF91E20E030E008
:1008300040E251E4C301B20117D52B013C0132D48F
:100840004B01B12CA12C4AE0C501B40122DFE80E16
:10085000F91EC501B40152D49B01AC01C301B20120
:1008600050D320E030E040E251E4FED41BD490E0CD
:1008700080E04AE00EDFE80EF91E64CF1F920F926F
:100880000FB60F9211242F933F938F939F93AF93A3
:10089000BF938091670290916802A0916902B09124
:1008A0006A023091660223E0230F2D3758F5019636
:1008B000A11DB11D20936602809367029093680288
:1008C000A0936902B0936A0280916B0290916C02CE
:1008D000A0916D02B0916E020196A11DB11D809391
:1008E0006B0290936C02A0936D02B0936E02BF9165
:1008F000AF919F918F913F912F910F900FBE0F90CD
:100900001F90189526E8230F0296A11DB11DD2CF86
:100910001F920F920FB60F9211240BB60F922F93C6
:100920003F934F935F936F937F938F939F93AF9377
:10093000BF93EF93FF938FE692E0E2DDFF91EF919B
:10094000BF91AF919F918F917F916F915F914F91E7
:100950003F912F910F900BBE0F900FBE0F901F90E5
:1009600018951F920F920FB60F9211240BB60F928B
:100970002F938F939F93EF93FF93E0917F02F091DA
:1009800080028081E0918502F091860282FD1DC087
:100990009081809188028F5F8F73209189028217E6
:1009A00041F0E0918802F0E0E159FD4F958F80938E
:1009B0008802FF91EF919F918F912F910F900BBE25
:1009C0000F900FBE0F901F9018958081F2CF7894F2
:1009D00084B5826084BD84B5816084BD85B5826044
:1009E00085BD85B5816085BD80916E0081608093F5
:1009F0006E0010928100809181008260809381005E
:100A0000809181008160809381008091800081606D
:100A1000809380008091B10084608093B1008091C8
:100A2000B00081608093B0008091910082608093DB
:100A3000910080919100816080939100809190005D
:100A40008160809390008091A10082608093A100DA
:100A50008091A10081608093A1008091A0008160BD
:100A60008093A00080912101826080932101809178
:100A70002101816080932101809120018160809318
:100A8000200180917A00846080937A0080917A00BE
:100A9000826080937A0080917A00816080937A00EE
:100AA00080917A00806880937A001092C100E09172
:100AB0007F02F091800282E08083E0917B02F091DE
:100AC0007C021082E0917D02F0917E028FEC8083A7
:100AD00010928702E0918302F091840286E0808385
:100AE000E0918102F0918202808180618083E091B7
:100AF0008102F0918202808188608083E09181028E
:100B0000F0918202808180688083E0918102F0917F
:100B1000820280818F7D808385E2AFDB83E2ADDB63
:100B200081E2ABDB8FE1A9DB53DC4B015C0180EDA3
:100B3000C82E87E0D82EE12CF12C4ADC68197909FF
:100B40008A099B09683E734081059105B0F321E055
:100B5000C21AD108E108F10888EE880E83E0981ED9
:100B6000A11CB11CC114D104E104F10431F76FDB05
:100B7000BC0190E080E0C2D220E030EC4FE754E4CA
:100B800029D220E030E040EA50E46ED36B017C01D2
:100B9000AC019B0160E070E080EA90E4B2D1A70173
:100BA000960118D220E030E543EC57E45DD37AD2C9
:100BB00060934A0270934B0280934C0290934D02D3
:100BC00081E292E05ADD60914A0270914B0280917D
:100BD0004C0290914D024AE05CDD8EE192E04DDDE9
:100BE00060914A0270914B0280914C0290914D02AB
:100BF00085D26B017C0126E636E646EA5FE334D314
:100C00006093520270935302809354029093550262
:100C10002AE939E949ED5FE3C701B60125D36093BD
:100C20005602709357028093580290935902A7017D
:100C30009601C701B60166D160935A0270935B02B8
:100C400080935C0290935D022DEC3CEC4CE050E410
:100C5000C701B60109D360935E0270935F0280936F
:100C600060029093610287E292E007DD6091520298
:100C70007091530280915402909155024CDD8FE2A5
:100C800092E0FBDC6091560270915702809158020D
:100C90009091590240DD88E392E0EFDC60915A02C6
:100CA00070915B0280915C0290915D0234DD81E481
:100CB00092E0E3DC60915E0270915F0280916002DD
:100CC0009091610228DDC1E0C2DABC0190E080E0D1
:100CD00015D220E030EC4FE754E47CD120E030E046
:100CE00040EA50E4C1D26B017C01AC019B0160E0A1
:100CF00070E080EA90E405D1A70196016BD120E075
:100D000030E543EC57E4B0D2CDD1609362027093EA
:100D100063028093640290936502F0D16B017C01C1
:100D200080905E0290905F02A0906002B09061029D
:100D3000A501940195D218160CF056C0809151026D
:100D4000811192C0C093510261E08FE1B5DA8090C9
:100D50005A0290905B02A0905C02B0905D02A501E7
:100D60009401C701B6017CD218160CF04DC08091D9
:100D70005002811181C0C093500261E081E29CDA8F
:100D80008090560290905702A0905802B09059025D
:100D9000A5019401C701B60163D218160CF044C036
:100DA00080914F02811170C0C0934F0261E083E2D5
:100DB00083DA8090520290905302A0905402B09037
:100DC0005502A5019401C701B6014AD218160CF0CC
:100DD0003BC080914E0281115FC0C0934E0261E022
:100DE00085E26ADA1ADC70CFA5019401C701B60169
:100DF000EDD087FFACCF80915102882309F4A7CFB3
:100E00001092510260E0A1CFA5019401C701B60183
:100E1000DDD087FFB5CF80915002882309F4B0CF91
:100E20001092500260E0AACFA5019401C701B6015B
:100E3000CDD087FFBECF80914F02882309F4B9CF70
:100E400010924F0260E0B3CFA5019401C701B60133
:100E5000BDD087FFC7CF80914E02882309F4C2CF4F
:100E600010924E0260E0BCCFA5019401C701B6010B
:100E7000ADD087FF6CCFC4CFA5019401C701B601E7
:100E8000A5D087FF7DCFCCCFA5019401C701B601C6
:100E90009DD087FF8ECFD4CFA5019401C701B601A5
:100EA00095D087FF9FCFDCCFEFE6F2E0138212826E
:100EB00088EE93E0A0E0B0E084839583A683B783B7
:100EC00084E092E09183808385EC90E0958784872D
:100ED00084EC90E09787868780EC90E0918B808B04
:100EE00081EC90E0938B828B82EC90E0958B848BED
:100EF00086EC90E0978B868B118E128E138E148E5B
:100F000008955058BB27AA270ED070C161D130F088
:100F100066D120F031F49F3F11F41EF456C10EF457
:100F2000E095E7FB4CC1E92F72D180F3BA17620755
:100F300073078407950718F071F49EF58AC10EF4C3
:100F4000E0950B2EBA2FA02D0B01B90190010C01D9
:100F5000CA01A0011124FF27591B99F0593F50F4F1
:100F6000503E68F11A16F040A22F232F342F442749
:100F7000585FF3CF469537952795A795F040539541
:100F8000C9F77EF41F16BA0B620B730B840BBAF011
:100F90009150A1F0FF0FBB1F661F771F881FC2F77C
:100FA0000EC0BA0F621F731F841F48F48795779590
:100FB0006795B795F7959E3F08F0B3CF9395880F47
:100FC00008F09927EE0F979587950895D4D008F4E7
:100FD00081E008950CD00AC102D140F0F9D030F080
:100FE00021F45F3F19F0EBC0511134C1EEC00FD1B5
:100FF00098F39923C9F35523B1F3951B550BBB27E0
:10100000AA2762177307840738F09F5F5F4F220F8C
:10101000331F441FAA1FA9F333D00E2E3AF0E0E885
:1010200030D091505040E695001CCAF729D0FE2FD1
:1010300027D0660F771F881FBB1F26173707480763
:10104000AB07B0E809F0BB0B802DBF01FF27935819
:101050005F4F2AF09E3F510568F0B1C0FBC05F3F73
:10106000ECF3983EDCF3869577956795B795F79501
:101070009F5FC9F7880F911D9695879597F90895F9
:10108000E1E0660F771F881FBB1F62177307840795
:10109000BA0720F0621B730B840BBA0BEE1F88F7A4
:1010A000E0950895BCD088F09F5790F0B92F99270C
:1010B000B751A0F0D1F0660F771F881F991F1AF063
:1010C000BA95C9F712C0B13081F0C3D0B1E008952C
:1010D000C0C0672F782F8827B85F39F0B93FCCF3AD
:1010E000869577956795B395D9F73EF49095809559
:1010F000709561957F4F8F4F9F4F0895E89409C079
:1011000097FB3EF490958095709561957F4F8F4F3A
:101110009F4F9923A9F0F92F96E9BB279395F69550
:10112000879577956795B795F111F8CFFAF4BB0FCE
:1011300011F460FF1BC06F5F7F4F8F4F9F4F16C032
:10114000882311F096E911C0772321F09EE8872FBC
:10115000762F05C0662371F096E8862F70E060E078
:101160002AF09A95660F771F881FDAF7880F9695F1
:10117000879597F90895990F0008550FAA0BE0E895
:10118000FEEF16161706E807F907C0F01216130649
:10119000E407F50798F0621B730B840B950B39F489
:1011A0000A2661F0232B242B252B21F408950A26EF
:1011B00009F4A140A6958FEF811D811D089597F92F
:1011C0009F6780E870E060E008959FEF80EC0895ED
:1011D00000240A9416161706180609060895002416
:1011E0000A9412161306140605060895092E039490
:1011F000000C11F4882352F0BB0F40F4BF2B11F404
:1012000060FF04C06F5F7F4F8F4F9F4F089557FD62
:101210009058440F551F59F05F3F71F04795880F64
:1012200097FB991F61F09F3F79F0879508951216FB
:1012300013061406551FF2CF4695F1DF08C01616A7
:1012400017061806991FF1CF869571056105089458
:101250000895E894BB2766277727CB0197F908956F
:101260008ADF08F48FEF08950BD0C0CFB1DF28F0EC
:10127000B6DF18F0952309F0A2CFA7CF1124EACF4B
:10128000C6DFA0F3959FD1F3950F50E0551F629FE5
:10129000F001729FBB27F00DB11D639FAA27F00DCF
:1012A000B11DAA1F649F6627B00DA11D661F829FF6
:1012B0002227B00DA11D621F739FB00DA11D621FDB
:1012C000839FA00D611D221F749F3327A00D611DF8
:1012D000231F849F600D211D822F762F6A2F1124DA
:1012E0009F5750408AF0E1F088234AF0EE0FFF1F2D
:1012F000BB1F661F771F881F91505040A9F79E3F64
:10130000510570F05CCFA6CF5F3FECF3983EDCF365
:10131000869577956795B795F795E7959F5FC1F7A0
:10132000FE2B880F911D9695879597F9089523DFD9
:10133000880B990B0895A1E21A2EAA1BBB1BFD0175
:101340000DC0AA1FBB1FEE1FFF1FA217B307E407A4
:10135000F50720F0A21BB30BE40BF50B661F771FFC
:10136000881F991F1A9469F76095709580959095DC
:101370009B01AC01BD01CF010895EE0FFF1F881F37
:0E1380008BBF0790F691E02D1994F894FFCFE3
:10138E0000000000A2020D023A02EE026B024902B8
:10139E005D026E616E00696E66006F7666000D0A04
:1013AE00005230203D2000525F3530203D2000524B
:1013BE005F313030203D2000525F313530203D20EE
:0A13CE0000525F323030203D200055
:00000001FF
